:1000000033C00000CAC0000009C1000048C00000A1
:1000100046C0000044C0000042C0000040C00000D4
:100020003EC000003CC0000058C0000038C00000C6
:1000300036C0000034C0000032C0000030C00000F4
:100040002EC000002CC000002AC0000028C0000004
:1000500026C0000024C0000022C0000020C0000014
:100060001EC000001CC0000011241FBECFEFD8E04E
:10007000DEBFCDBF11E0A0E0B1E0E0E2F3E002C0FE
:1000800005900D92A230B107D9F721E0A2E0B1E0CE
:1000900001C01D92A830B207E1F729D13FC1B0CF0E
:1000A0005C9A5D9A08955C9A5D9808955C985D9A53
:1000B00008955C985D980895880F991F30E1009726
:1000C00059F02BB123272BB9EFE6F7E13197F1F780
:1000D00000C000000197F3CF08951F920F920FB652
:1000E0000F9211242F933F934F935F936F937F93BE
:1000F0008F939F93AF93BF93EF93FF9380910001F2
:10010000909101019C012F5F3F4F3093010120939B
:100110000001CC97D1F4109201011092000180915E
:10012000040190910501892B81F060910401709187
:10013000050188E592E0DED0CB016A30710508F058
:10014000BBDF10920501109204018091060190918D
:100150000701CD9750F48091060190910701019617
:10016000909307018093060107C0809103018823C3
:1001700011F09FDF01C094DFFF91EF91BF91AF912C
:100180009F918F917F916F915F914F913F912F91AF
:100190000F900FBE0F901F9018951F920F920FB6E1
:1001A0000F9211242F933F934F935F936F937F93FD
:1001B0008F939F93AF93BF93EF93FF934B9B18C085
:1001C00080910601909107019093050180930401AD
:1001D000109207011092060180910201882321F0FC
:1001E00081E08093030165DF81E08093020105C017
:1001F000109202011092030156DFFF91EF91BF911F
:10020000AF919F918F917F916F915F914F913F91AE
:100210002F910F900FBE0F901F9018951F920F9265
:100220000FB60F9211242F933F934F935F936F93C9
:100230007F938F939F93AF93BF93EF93FF934A9BCB
:1002400018C0809106019091070190930501809359
:100250000401109207011092060180910201882387
:1002600021F081E08093030124DF81E0809302018B
:1002700005C0109202011092030118DFFF91EF9167
:10028000BF91AF919F918F917F916F915F914F91AE
:100290003F912F910F900FBE0F901F90189552987D
:1002A0005A9853985B98549A5C9A559A5D9A8AE04A
:1002B0008093690083E08DBB109280008CE1809375
:1002C0008100109285001092840084EF8093870053
:1002D00083E2809386001092890010928800109229
:1002E0008B0010928A0080E280936F000895D7DF20
:1002F0007894FFCFAA1BBB1B51E107C0AA1FBB1FED
:10030000A617B70710F0A61BB70B881F991F5A95A1
:10031000A9F780959095BC01CD010895F894FFCF81
:020320003C009F
:00000001FF
