:1000000033C00000C6C00000FFC0000048C00000B0
:1000100046C0000044C0000042C0000040C00000D4
:100020003EC000003CC000005AC0000038C00000C4
:1000300036C0000034C0000032C0000030C00000F4
:100040002EC000002CC000002AC0000028C0000004
:1000500026C0000024C0000022C0000020C0000014
:100060001EC000001CC0000011241FBECFEFD8E04E
:10007000DEBFCDBF11E0A0E0B1E0E2E0F3E002C0FE
:1000800005900D92A230B107D9F721E0A2E0B1E0CE
:1000900001C01D92A730B207E1F71AD130C1B0CF2D
:1000A0008BB18F6E8BB95D9A08955C9A5D980895B7
:1000B0005C985D9A08955C985D980895880F991FE3
:1000C00030E1009759F02BB123272BB9EFE6F7E188
:1000D0003197F1F700C000000197F3CF08951F9208
:1000E0000F920FB60F9211242F933F934F935F936C
:1000F0006F937F938F939F93AF93BF93EF93FF93F0
:1001000080910001909101018C33910531F00196AD
:1001100090930101809300011AC010920101109286
:1001200000018091020190910301892B79F0609187
:1001300002017091030188E592E0CDD0CB016A30D5
:10014000710510F0BBDF03C0ABDF01C0B4DF8091ED
:10015000050190910601CD9750F480910501909191
:1001600006010196909306018093050101C098DF76
:10017000FF91EF91BF91AF919F918F917F916F917F
:100180005F914F913F912F910F900FBE0F901F9055
:1001900018951F920F920FB60F9211242F933F9331
:1001A0004F935F936F937F938F939F93AF93BF937F
:1001B000EF93FF934B9914C0809105019091060134
:1001C00090930301809302011092060110920501A1
:1001D0008091040181116FDF81E08093040103C0ED
:1001E0001092040162DFFF91EF91BF91AF919F9157
:1001F0008F917F916F915F914F913F912F910F90D0
:100200000FBE0F901F9018951F920F920FB60F926E
:1002100011242F933F934F935F936F937F938F930B
:100220009F93AF93BF93EF93FF934A9914C080912C
:1002300005019091060190930301809302011092B1
:1002400006011092050180910401811134DF81E0E3
:100250008093040103C0109204012ADFFF91EF9103
:10026000BF91AF919F918F917F916F915F914F91CE
:100270003F912F910F900FBE0F901F90189552989D
:100280005A9853985B98549A5C9A559A5D9A8FE065
:100290008093690083E08DBB8CBB109280008CE161
:1002A00080938100109285001092840084EF8093E7
:1002B000870083E280938600109289001092880064
:1002C00010928B0010928A0080E280936F00089554
:1002D000D6DF7894FFCFAA1BBB1B51E107C0AA1F32
:1002E000BB1FA617B70710F0A61BB70B881F991FD7
:1002F0005A95A9F780959095BC01CD010895F89481
:02030000FFCF2D
:020302003C00BD
:00000001FF
